{
  "abi": [
    {
      "inputs": [
        {
          "internalType": "contract Registry",
          "name": "_registry",
          "type": "address"
        }
      ],
      "stateMutability": "nonpayable",
      "type": "constructor"
    },
    {
      "anonymous": false,
      "inputs": [
        {
          "indexed": true,
          "internalType": "address",
          "name": "entity",
          "type": "address"
        },
        {
          "indexed": true,
          "internalType": "uint8",
          "name": "entityType",
          "type": "uint8"
        },
        {
          "indexed": true,
          "internalType": "address",
          "name": "entityManager",
          "type": "address"
        }
      ],
      "name": "EntityDeployed",
      "type": "event"
    },
    {
      "inputs": [],
      "name": "ETH_PLACEHOLDER",
      "outputs": [
        {
          "internalType": "address",
          "name": "",
          "type": "address"
        }
      ],
      "stateMutability": "view",
      "type": "function"
    },
    {
      "inputs": [],
      "name": "baseToken",
      "outputs": [
        {
          "internalType": "contract ERC20",
          "name": "",
          "type": "address"
        }
      ],
      "stateMutability": "view",
      "type": "function"
    },
    {
      "inputs": [
        {
          "internalType": "address",
          "name": "_manager",
          "type": "address"
        },
        {
          "internalType": "bytes32",
          "name": "_salt",
          "type": "bytes32"
        }
      ],
      "name": "computeFundAddress",
      "outputs": [
        {
          "internalType": "address",
          "name": "",
          "type": "address"
        }
      ],
      "stateMutability": "view",
      "type": "function"
    },
    {
      "inputs": [
        {
          "internalType": "bytes32",
          "name": "_orgId",
          "type": "bytes32"
        }
      ],
      "name": "computeOrgAddress",
      "outputs": [
        {
          "internalType": "address",
          "name": "",
          "type": "address"
        }
      ],
      "stateMutability": "view",
      "type": "function"
    },
    {
      "inputs": [
        {
          "internalType": "address",
          "name": "_manager",
          "type": "address"
        },
        {
          "internalType": "bytes32",
          "name": "_salt",
          "type": "bytes32"
        }
      ],
      "name": "deployFund",
      "outputs": [
        {
          "internalType": "contract Fund",
          "name": "_fund",
          "type": "address"
        }
      ],
      "stateMutability": "nonpayable",
      "type": "function"
    },
    {
      "inputs": [
        {
          "internalType": "address",
          "name": "_manager",
          "type": "address"
        },
        {
          "internalType": "bytes32",
          "name": "_salt",
          "type": "bytes32"
        },
        {
          "internalType": "uint256",
          "name": "_amount",
          "type": "uint256"
        }
      ],
      "name": "deployFundAndDonate",
      "outputs": [
        {
          "internalType": "contract Fund",
          "name": "_fund",
          "type": "address"
        }
      ],
      "stateMutability": "nonpayable",
      "type": "function"
    },
    {
      "inputs": [
        {
          "internalType": "address",
          "name": "_manager",
          "type": "address"
        },
        {
          "internalType": "bytes32",
          "name": "_salt",
          "type": "bytes32"
        },
        {
          "internalType": "contract ISwapWrapper",
          "name": "_swapWrapper",
          "type": "address"
        },
        {
          "internalType": "address",
          "name": "_tokenIn",
          "type": "address"
        },
        {
          "internalType": "uint256",
          "name": "_amountIn",
          "type": "uint256"
        },
        {
          "internalType": "bytes",
          "name": "_data",
          "type": "bytes"
        }
      ],
      "name": "deployFundSwapAndDonate",
      "outputs": [
        {
          "internalType": "contract Fund",
          "name": "_fund",
          "type": "address"
        }
      ],
      "stateMutability": "payable",
      "type": "function"
    },
    {
      "inputs": [
        {
          "internalType": "bytes32",
          "name": "_orgId",
          "type": "bytes32"
        }
      ],
      "name": "deployOrg",
      "outputs": [
        {
          "internalType": "contract Org",
          "name": "_org",
          "type": "address"
        }
      ],
      "stateMutability": "nonpayable",
      "type": "function"
    },
    {
      "inputs": [
        {
          "internalType": "bytes32",
          "name": "_orgId",
          "type": "bytes32"
        },
        {
          "internalType": "uint256",
          "name": "_amount",
          "type": "uint256"
        }
      ],
      "name": "deployOrgAndDonate",
      "outputs": [
        {
          "internalType": "contract Org",
          "name": "_org",
          "type": "address"
        }
      ],
      "stateMutability": "nonpayable",
      "type": "function"
    },
    {
      "inputs": [
        {
          "internalType": "bytes32",
          "name": "_orgId",
          "type": "bytes32"
        },
        {
          "internalType": "contract ISwapWrapper",
          "name": "_swapWrapper",
          "type": "address"
        },
        {
          "internalType": "address",
          "name": "_tokenIn",
          "type": "address"
        },
        {
          "internalType": "uint256",
          "name": "_amountIn",
          "type": "uint256"
        },
        {
          "internalType": "bytes",
          "name": "_data",
          "type": "bytes"
        }
      ],
      "name": "deployOrgSwapAndDonate",
      "outputs": [
        {
          "internalType": "contract Org",
          "name": "_org",
          "type": "address"
        }
      ],
      "stateMutability": "payable",
      "type": "function"
    },
    {
      "inputs": [],
      "name": "fundImplementation",
      "outputs": [
        {
          "internalType": "contract Fund",
          "name": "",
          "type": "address"
        }
      ],
      "stateMutability": "view",
      "type": "function"
    },
    {
      "inputs": [],
      "name": "orgImplementation",
      "outputs": [
        {
          "internalType": "contract Org",
          "name": "",
          "type": "address"
        }
      ],
      "stateMutability": "view",
      "type": "function"
    },
    {
      "inputs": [],
      "name": "registry",
      "outputs": [
        {
          "internalType": "contract Registry",
          "name": "",
          "type": "address"
        }
      ],
      "stateMutability": "view",
      "type": "function"
    }
  ],
  "bytecode": {
    "object": "0x6101006040523480156200001257600080fd5b5060405162007ebd38038062007ebd833981016040819052620000359162000221565b6001600160a01b0381166080526040516200005090620001ec565b604051809103906000f0801580156200006d573d6000803e3d6000fd5b506001600160a01b0390811660a0819052604051632f84fd1f60e21b81529183166004830152631253541360e21b60248301529063be13f47c90604401600060405180830381600087803b158015620000c557600080fd5b505af1158015620000da573d6000803e3d6000fd5b50505050604051620000ec90620001fa565b604051809103906000f08015801562000109573d6000803e3d6000fd5b506001600160a01b0390811660c081905260405163485cc95560e01b81529183166004830152600060248301529063485cc95590604401600060405180830381600087803b1580156200015b57600080fd5b505af115801562000170573d6000803e3d6000fd5b50505050806001600160a01b031663c55dae636040518163ffffffff1660e01b8152600401602060405180830381865afa158015620001b3573d6000803e3d6000fd5b505050506040513d601f19601f82011682018060405250810190620001d9919062000221565b6001600160a01b031660e0525062000248565b61354380620014c583390190565b6134b58062004a0883390190565b6001600160a01b03811681146200021e57600080fd5b50565b6000602082840312156200023457600080fd5b8151620002418162000208565b9392505050565b60805160a05160c05160e051611204620002c16000396000818161027c0152610c700152600081816101320152818161031d01526104130152600081816101860152818161067801526107140152600081816101ba0152818161048e0152818161054101528181610776015261082801526112046000f3fe6080604052600436106100d25760003560e01c8063a60fe71d1161007f578063c45e15a011610059578063c45e15a014610242578063c55dae631461026a578063db9e30cc1461029e578063e6be99fc146102be57600080fd5b8063a60fe71d146101fc578063ab438d6b1461021c578063bf37a6701461022f57600080fd5b80636fee7ed6116100b05780636fee7ed6146101745780637b103999146101a85780639fb8578d146101dc57600080fd5b8063099a81e3146100d75780630b307674146101205780632a4004b814610154575b600080fd5b3480156100e357600080fd5b506100f76100f2366004610f1f565b6102de565b60405173ffffffffffffffffffffffffffffffffffffffff909116815260200160405180910390f35b34801561012c57600080fd5b506100f77f000000000000000000000000000000000000000000000000000000000000000081565b34801561016057600080fd5b506100f761016f366004610f1f565b6103d4565b34801561018057600080fd5b506100f77f000000000000000000000000000000000000000000000000000000000000000081565b3480156101b457600080fd5b506100f77f000000000000000000000000000000000000000000000000000000000000000081565b3480156101e857600080fd5b506100f76101f7366004610f4b565b610671565b34801561020857600080fd5b506100f7610217366004610f4b565b61070d565b6100f761022a366004610fad565b6109c5565b6100f761023d36600461103c565b6109ec565b34801561024e57600080fd5b506100f773eeeeeeeeeeeeeeeeeeeeeeeeeeeeeeeeeeeeeeee81565b34801561027657600080fd5b506100f77f000000000000000000000000000000000000000000000000000000000000000081565b3480156102aa57600080fd5b506100f76102b93660046110b8565b610a11565b3480156102ca57600080fd5b506100f76102d93660046110da565b610a28565b6040517fffffffffffffffffffffffffffffffffffffffff000000000000000000000000606084901b166020820152603481018290526000906103cb907f00000000000000000000000000000000000000000000000000000000000000009060540160405160208183030381529060405280519060200120306040517f602d8060093d393df3363d3d373d3d3d363d73000000000000000000000000008152606093841b60138201527f5af43d82803e903d91602b57fd5bf3ff000000000000000000000000000000006027820152921b6037830152604b8201526036808220606b830152605591012090565b90505b92915050565b6040517fffffffffffffffffffffffffffffffffffffffff000000000000000000000000606084901b16602082015260348101829052600090610451907f00000000000000000000000000000000000000000000000000000000000000009060540160405160208183030381529060405280519060200120610a47565b6040517f485cc95500000000000000000000000000000000000000000000000000000000815273ffffffffffffffffffffffffffffffffffffffff7f00000000000000000000000000000000000000000000000000000000000000008116600483015285811660248301529192509082169063485cc95590604401600060405180830381600087803b1580156104e657600080fd5b505af11580156104fa573d6000803e3d6000fd5b50506040517f0160a6e200000000000000000000000000000000000000000000000000000000815273ffffffffffffffffffffffffffffffffffffffff84811660048301527f0000000000000000000000000000000000000000000000000000000000000000169250630160a6e29150602401600060405180830381600087803b15801561058757600080fd5b505af115801561059b573d6000803e3d6000fd5b505050508273ffffffffffffffffffffffffffffffffffffffff168173ffffffffffffffffffffffffffffffffffffffff1663838453fd6040518163ffffffff1660e01b8152600401602060405180830381865afa158015610601573d6000803e3d6000fd5b505050506040513d601f19601f82011682018060405250810190610625919061110f565b60ff168273ffffffffffffffffffffffffffffffffffffffff167f1e3e29fb0c05e0c478577b9b3e207cbfe2952b1f9b239ed5d2535d4b24b6c57760405160405180910390a492915050565b60006103ce7f000000000000000000000000000000000000000000000000000000000000000083306040517f602d8060093d393df3363d3d373d3d3d363d73000000000000000000000000008152606093841b60138201527f5af43d82803e903d91602b57fd5bf3ff000000000000000000000000000000006027820152921b6037830152604b8201526036808220606b830152605591012090565b60006107397f000000000000000000000000000000000000000000000000000000000000000083610a47565b6040517fbe13f47c00000000000000000000000000000000000000000000000000000000815273ffffffffffffffffffffffffffffffffffffffff7f000000000000000000000000000000000000000000000000000000000000000081166004830152602482018590529192509082169063be13f47c90604401600060405180830381600087803b1580156107cd57600080fd5b505af11580156107e1573d6000803e3d6000fd5b50506040517f0160a6e200000000000000000000000000000000000000000000000000000000815273ffffffffffffffffffffffffffffffffffffffff84811660048301527f0000000000000000000000000000000000000000000000000000000000000000169250630160a6e29150602401600060405180830381600087803b15801561086e57600080fd5b505af1158015610882573d6000803e3d6000fd5b505050508073ffffffffffffffffffffffffffffffffffffffff1663481c6a756040518163ffffffff1660e01b8152600401602060405180830381865afa1580156108d1573d6000803e3d6000fd5b505050506040513d601f19601f820116820180604052508101906108f59190611132565b73ffffffffffffffffffffffffffffffffffffffff168173ffffffffffffffffffffffffffffffffffffffff1663838453fd6040518163ffffffff1660e01b8152600401602060405180830381865afa158015610956573d6000803e3d6000fd5b505050506040513d601f19601f8201168201806040525081019061097a919061110f565b60ff168273ffffffffffffffffffffffffffffffffffffffff167f1e3e29fb0c05e0c478577b9b3e207cbfe2952b1f9b239ed5d2535d4b24b6c57760405160405180910390a4919050565b60006109d188886103d4565b90506109e1818787878787610b2a565b979650505050505050565b60006109f78761070d565b9050610a07818787878787610b2a565b9695505050505050565b6000610a1c8361070d565b90506103ce8183610c56565b6000610a3484846103d4565b9050610a408183610c56565b9392505050565b60006040517f602d8060093d393df3363d3d373d3d3d363d730000000000000000000000000081528360601b60138201527f5af43d82803e903d91602b57fd5bf300000000000000000000000000000000006027820152826036826000f591505073ffffffffffffffffffffffffffffffffffffffff81166103ce576040517f08c379a000000000000000000000000000000000000000000000000000000000815260206004820152601760248201527f455243313136373a2063726561746532206661696c656400000000000000000060448201526064015b60405180910390fd5b73ffffffffffffffffffffffffffffffffffffffff841673eeeeeeeeeeeeeeeeeeeeeeeeeeeeeeeeeeeeeeee14610bc057610b7d73ffffffffffffffffffffffffffffffffffffffff8516333086610cfc565b610b9f73ffffffffffffffffffffffffffffffffffffffff8516876000610de6565b610bc073ffffffffffffffffffffffffffffffffffffffff85168785610de6565b6040517fa2f48b9f00000000000000000000000000000000000000000000000000000000815273ffffffffffffffffffffffffffffffffffffffff87169063a2f48b9f903490610c1c908990899089908990899060040161114f565b6000604051808303818588803b158015610c3557600080fd5b505af1158015610c49573d6000803e3d6000fd5b5050505050505050505050565b610c9873ffffffffffffffffffffffffffffffffffffffff7f000000000000000000000000000000000000000000000000000000000000000016338484610cfc565b8173ffffffffffffffffffffffffffffffffffffffff16630b2ec6726040518163ffffffff1660e01b8152600401600060405180830381600087803b158015610ce057600080fd5b505af1158015610cf4573d6000803e3d6000fd5b505050505050565b60006040517f23b872dd00000000000000000000000000000000000000000000000000000000815273ffffffffffffffffffffffffffffffffffffffff8516600482015273ffffffffffffffffffffffffffffffffffffffff8416602482015282604482015260008060648360008a5af1915050610d7981610eb3565b610ddf576040517f08c379a000000000000000000000000000000000000000000000000000000000815260206004820152601460248201527f5452414e534645525f46524f4d5f4641494c45440000000000000000000000006044820152606401610b21565b5050505050565b60006040517f095ea7b300000000000000000000000000000000000000000000000000000000815273ffffffffffffffffffffffffffffffffffffffff841660048201528260248201526000806044836000895af1915050610e4781610eb3565b610ead576040517f08c379a000000000000000000000000000000000000000000000000000000000815260206004820152600e60248201527f415050524f56455f4641494c45440000000000000000000000000000000000006044820152606401610b21565b50505050565b60003d82610ec557806000803e806000fd5b8060208114610edd578015610eee5760009250610ef3565b816000803e60005115159250610ef3565b600192505b5050919050565b73ffffffffffffffffffffffffffffffffffffffff81168114610f1c57600080fd5b50565b60008060408385031215610f3257600080fd5b8235610f3d81610efa565b946020939093013593505050565b600060208284031215610f5d57600080fd5b5035919050565b60008083601f840112610f7657600080fd5b50813567ffffffffffffffff811115610f8e57600080fd5b602083019150836020828501011115610fa657600080fd5b9250929050565b600080600080600080600060c0888a031215610fc857600080fd5b8735610fd381610efa565b9650602088013595506040880135610fea81610efa565b94506060880135610ffa81610efa565b93506080880135925060a088013567ffffffffffffffff81111561101d57600080fd5b6110298a828b01610f64565b989b979a50959850939692959293505050565b60008060008060008060a0878903121561105557600080fd5b86359550602087013561106781610efa565b9450604087013561107781610efa565b935060608701359250608087013567ffffffffffffffff81111561109a57600080fd5b6110a689828a01610f64565b979a9699509497509295939492505050565b600080604083850312156110cb57600080fd5b50508035926020909101359150565b6000806000606084860312156110ef57600080fd5b83356110fa81610efa565b95602085013595506040909401359392505050565b60006020828403121561112157600080fd5b815160ff81168114610a4057600080fd5b60006020828403121561114457600080fd5b8151610a4081610efa565b600073ffffffffffffffffffffffffffffffffffffffff808816835280871660208401525084604083015260806060830152826080830152828460a0840137600060a0848401015260a07fffffffffffffffffffffffffffffffffffffffffffffffffffffffffffffffe0601f8501168301019050969550505050505056fea264697066735822122041f3b86f0e558c73f04b8b34935409385edeaabd7323536131242509424e66a764736f6c634300080d0033608060405234801561001057600080fd5b50613523806100206000396000f3fe6080604052600436106101c65760003560e01c8063a2f48b9f116100f7578063c422c5bd11610095578063df3d067e11610064578063df3d067e1461058b578063e6f5f033146105ab578063f14faf6f146105cb578063f7044a5f146105eb57600080fd5b8063c422c5bd146104f6578063c45e15a014610516578063c55dae631461053e578063d0ebdbe71461056b57600080fd5b8063b100169b116100d1578063b100169b14610473578063b69ef8a814610493578063be13f47c146104a9578063bf7e214f146104c957600080fd5b8063a2f48b9f1461042d578063a8e405b014610440578063ab3c14fe1461046057600080fd5b8063481c6a75116101645780636c1848851161013e5780636c184885146103a45780637b103999146103c4578063838453fd146103f157806395f32d211461040d57600080fd5b8063481c6a751461031257806349d55d9d146103645780636a6815411461038457600080fd5b80631730bdfe116101a05780631730bdfe1461025e5780632031ee951461028757806324c67842146102d25780632c482f19146102f257600080fd5b80630b2ec672146102075780630cb6ee6f1461021e578063117de2fd1461023e57600080fd5b366102025760405134815233907f319b17788d08284faf176ecc26488a92299d712ea00ef44b9bcc454f8c8e66b29060200160405180910390a2005b600080fd5b34801561021357600080fd5b5061021c61060b565b005b34801561022a57600080fd5b5061021c610239366004612f36565b6108a6565b34801561024a57600080fd5b5061021c610259366004612f36565b6109b0565b34801561026a57600080fd5b5061027460075481565b6040519081526020015b60405180910390f35b34801561029357600080fd5b506001546102a19060601b81565b6040517fffffffffffffffffffffffffffffffffffffffff000000000000000000000000909116815260200161027e565b3480156102de57600080fd5b506102746102ed366004612fab565b610a6b565b3480156102fe57600080fd5b5061021c61030d366004613019565b610cc4565b34801561031e57600080fd5b5060045461033f9073ffffffffffffffffffffffffffffffffffffffff1681565b60405173ffffffffffffffffffffffffffffffffffffffff909116815260200161027e565b34801561037057600080fd5b5061021c61037f36600461305b565b610d33565b6103976103923660046130a3565b610e06565b60405161027e91906131ba565b3480156103b057600080fd5b5061021c6103bf366004612f36565b610f27565b3480156103d057600080fd5b5060035461033f9073ffffffffffffffffffffffffffffffffffffffff1681565b3480156103fd57600080fd5b506040516001815260200161027e565b34801561041957600080fd5b5061021c61042836600461305b565b61105a565b61021c61043b36600461320b565b6110c3565b34801561044c57600080fd5b5061021c61045b36600461327e565b61116f565b61021c61046e36600461320b565b6111e1565b34801561047f57600080fd5b5061021c61048e366004612f36565b611238565b34801561049f57600080fd5b5061027460065481565b3480156104b557600080fd5b5061021c6104c4366004612f36565b611321565b3480156104d557600080fd5b5060005461033f9073ffffffffffffffffffffffffffffffffffffffff1681565b34801561050257600080fd5b50610274610511366004612fab565b611332565b34801561052257600080fd5b5061033f73eeeeeeeeeeeeeeeeeeeeeeeeeeeeeeeeeeeeeeee81565b34801561054a57600080fd5b5060055461033f9073ffffffffffffffffffffffffffffffffffffffff1681565b34801561057757600080fd5b5061021c6105863660046132ae565b6115b1565b34801561059757600080fd5b5061021c6105a636600461320b565b6116c9565b3480156105b757600080fd5b5061021c6105c6366004613019565b611bf8565b3480156105d757600080fd5b5061021c6105e636600461305b565b611c67565b3480156105f757600080fd5b5061021c61060636600461305b565b611d07565b6005546040517f70a0823100000000000000000000000000000000000000000000000000000000815230600482015260009173ffffffffffffffffffffffffffffffffffffffff16906370a0823190602401602060405180830381865afa15801561067a573d6000803e3d6000fd5b505050506040513d601f19601f8201168201806040525081019061069e91906132d2565b90506006548110610868576000600654826106b9919061331a565b6003546040517f759c45dc00000000000000000000000000000000000000000000000000000000815230600482015291925060009173ffffffffffffffffffffffffffffffffffffffff9091169063759c45dc90602401602060405180830381865afa15801561072d573d6000803e3d6000fd5b505050506040513d601f19601f820116820180604052508101906107519190613331565b9050600080610766848463ffffffff16611d5e565b9150915061081e600360009054906101000a900473ffffffffffffffffffffffffffffffffffffffff1673ffffffffffffffffffffffffffffffffffffffff166361d027b36040518163ffffffff1660e01b8152600401602060405180830381865afa1580156107da573d6000803e3d6000fd5b505050506040513d601f19601f820116820180604052508101906107fe919061334e565b60055473ffffffffffffffffffffffffffffffffffffffff169083611db2565b6006805483019055604080518581526020810183905230917fac791e4e5e1041f59b3427f769f90a58cb39873d7fec687682c09583b425099c910160405180910390a25050505050565b600681905560405181815230907f1cd384df7b960f3950da0f15d6aa8d62512c9f2209adde5ddeba0f4ebd6b58829060200160405180910390a25b50565b6108d4336000357fffffffff0000000000000000000000000000000000000000000000000000000016611e7f565b61090a576040517f82b4290000000000000000000000000000000000000000000000000000000000815260040160405180910390fd5b6003546040517fb3d5804500000000000000000000000000000000000000000000000000000000815230600482015260009173ffffffffffffffffffffffffffffffffffffffff169063b3d58045906024015b602060405180830381865afa15801561097a573d6000803e3d6000fd5b505050506040513d601f19601f8201168201806040525081019061099e9190613331565b90506109ab83838361205b565b505050565b6109de336000357fffffffff0000000000000000000000000000000000000000000000000000000016611e7f565b610a14576040517f82b4290000000000000000000000000000000000000000000000000000000000815260040160405180910390fd5b6003546040517fb4ea2a9800000000000000000000000000000000000000000000000000000000815230600482015260009173ffffffffffffffffffffffffffffffffffffffff169063b4ea2a989060240161095d565b60045460009073ffffffffffffffffffffffffffffffffffffffff163314801590610ac15750610abf336000357fffffffff0000000000000000000000000000000000000000000000000000000016611e7f565b155b15610af8576040517f82b4290000000000000000000000000000000000000000000000000000000000815260040160405180910390fd5b6003546040517f55c6f68300000000000000000000000000000000000000000000000000000000815273ffffffffffffffffffffffffffffffffffffffff8781166004830152909116906355c6f68390602401602060405180830381865afa158015610b68573d6000803e3d6000fd5b505050506040513d601f19601f82011682018060405250810190610b8c919061336b565b610bc2576040517fbc43451a00000000000000000000000000000000000000000000000000000000815260040160405180910390fd5b6040517fe77c646d00000000000000000000000000000000000000000000000000000000815260009073ffffffffffffffffffffffffffffffffffffffff87169063e77c646d90610c1b908890889088906004016133d6565b6020604051808303816000875af1158015610c3a573d6000803e3d6000fd5b505050506040513d601f19601f82011682018060405250810190610c5e91906132d2565b6006805482019055604080518781526020810183905291925073ffffffffffffffffffffffffffffffffffffffff8816917fee0fb9e6d573076d9a07b1d91e0a988c2f988d1d690ff129ff3096408d0afbc891015b60405180910390a295945050505050565b610cf2336000357fffffffff0000000000000000000000000000000000000000000000000000000016611e7f565b610d28576040517f82b4290000000000000000000000000000000000000000000000000000000000815260040160405180910390fd5b6109ab83838361205b565b6003546040517fea3fff6800000000000000000000000000000000000000000000000000000000815233600482015273ffffffffffffffffffffffffffffffffffffffff9091169063ea3fff6890602401602060405180830381865afa158015610da1573d6000803e3d6000fd5b505050506040513d601f19601f82011682018060405250810190610dc5919061336b565b610dfb576040517f4839ee3e00000000000000000000000000000000000000000000000000000000815260040160405180910390fd5b600680549091019055565b6060610e36336000357fffffffff0000000000000000000000000000000000000000000000000000000016611e7f565b610e6c576040517f82b4290000000000000000000000000000000000000000000000000000000000815260040160405180910390fd5b6000808573ffffffffffffffffffffffffffffffffffffffff168585604051610e9591906133f0565b60006040518083038185875af1925050503d8060008114610ed2576040519150601f19603f3d011682016040523d82523d6000602084013e610ed7565b606091505b509150915081610f1e57806040517fa5fa8d2b000000000000000000000000000000000000000000000000000000008152600401610f1591906131ba565b60405180910390fd5b95945050505050565b60045473ffffffffffffffffffffffffffffffffffffffff163314801590610f7a5750610f78336000357fffffffff0000000000000000000000000000000000000000000000000000000016611e7f565b155b15610fb1576040517f82b4290000000000000000000000000000000000000000000000000000000000815260040160405180910390fd5b6003546040517f864ec3f000000000000000000000000000000000000000000000000000000000815230600482015273ffffffffffffffffffffffffffffffffffffffff8481166024830152600092169063864ec3f0906044015b602060405180830381865afa158015611029573d6000803e3d6000fd5b505050506040513d601f19601f8201168201806040525081019061104d9190613331565b90506109ab8383836121a6565b611088336000357fffffffff0000000000000000000000000000000000000000000000000000000016611e7f565b6110be576040517f82b4290000000000000000000000000000000000000000000000000000000000815260040160405180910390fd5b600755565b6003546040517fa96abefe00000000000000000000000000000000000000000000000000000000815230600482015260009173ffffffffffffffffffffffffffffffffffffffff169063a96abefe906024015b602060405180830381865afa158015611133573d6000803e3d6000fd5b505050506040513d601f19601f820116820180604052508101906111579190613331565b90506111678686868686866124cc565b505050505050565b61119d336000357fffffffff0000000000000000000000000000000000000000000000000000000016611e7f565b6111d3576040517f82b4290000000000000000000000000000000000000000000000000000000000815260040160405180910390fd5b6111dd82826128e1565b5050565b6003546040517f759c45dc00000000000000000000000000000000000000000000000000000000815230600482015260009173ffffffffffffffffffffffffffffffffffffffff169063759c45dc90602401611116565b60045473ffffffffffffffffffffffffffffffffffffffff16331480159061128b5750611289336000357fffffffff0000000000000000000000000000000000000000000000000000000016611e7f565b155b156112c2576040517f82b4290000000000000000000000000000000000000000000000000000000000815260040160405180910390fd5b6003546040517fda93546e00000000000000000000000000000000000000000000000000000000815230600482015273ffffffffffffffffffffffffffffffffffffffff8481166024830152600092169063da93546e9060440161100c565b61132c826000612a42565b60075550565b60045460009073ffffffffffffffffffffffffffffffffffffffff1633148015906113885750611386336000357fffffffff0000000000000000000000000000000000000000000000000000000016611e7f565b155b156113bf576040517f82b4290000000000000000000000000000000000000000000000000000000000815260040160405180910390fd5b6003546040517f55c6f68300000000000000000000000000000000000000000000000000000000815273ffffffffffffffffffffffffffffffffffffffff8781166004830152909116906355c6f68390602401602060405180830381865afa15801561142f573d6000803e3d6000fd5b505050506040513d601f19601f82011682018060405250810190611453919061336b565b611489576040517fbc43451a00000000000000000000000000000000000000000000000000000000815260040160405180910390fd5b836006600082825461149b919061331a565b90915550506005546114c49073ffffffffffffffffffffffffffffffffffffffff168686612bd0565b6040517f5d30351900000000000000000000000000000000000000000000000000000000815260009073ffffffffffffffffffffffffffffffffffffffff871690635d3035199061151d908890889088906004016133d6565b6020604051808303816000875af115801561153c573d6000803e3d6000fd5b505050506040513d601f19601f8201168201806040525081019061156091906132d2565b604080518781526020810183905291925073ffffffffffffffffffffffffffffffffffffffff8816917f17f635bacbd012dd587e39c86059a06f779ee2111f6c5541b40c2941b09cf7c49101610cb3565b60045473ffffffffffffffffffffffffffffffffffffffff1633148015906116045750611602336000357fffffffff0000000000000000000000000000000000000000000000000000000016611e7f565b155b1561163b576040517f82b4290000000000000000000000000000000000000000000000000000000000815260040160405180910390fd5b60045460405173ffffffffffffffffffffffffffffffffffffffff8084169216907f20b26c6c7ff7d40d049fc212237046ba5f7cde4ba6d317501329880970cbb01590600090a3600480547fffffffffffffffffffffffff00000000000000000000000000000000000000001673ffffffffffffffffffffffffffffffffffffffff92909216919091179055565b600254600114611705576040517fab143c0600000000000000000000000000000000000000000000000000000000815260040160405180910390fd5b6002805560045473ffffffffffffffffffffffffffffffffffffffff16331480159061175c575061175a336000357fffffffff0000000000000000000000000000000000000000000000000000000016611e7f565b155b15611793576040517f82b4290000000000000000000000000000000000000000000000000000000000815260040160405180910390fd5b6003546040517f6ab3905700000000000000000000000000000000000000000000000000000000815273ffffffffffffffffffffffffffffffffffffffff878116600483015290911690636ab3905790602401602060405180830381865afa158015611803573d6000803e3d6000fd5b505050506040513d601f19601f82011682018060405250810190611827919061336b565b61185d576040517f4a7f394f00000000000000000000000000000000000000000000000000000000815260040160405180910390fd5b6003546040517f759c45dc00000000000000000000000000000000000000000000000000000000815230600482015260009173ffffffffffffffffffffffffffffffffffffffff169063759c45dc90602401602060405180830381865afa1580156118cc573d6000803e3d6000fd5b505050506040513d601f19601f820116820180604052508101906118f09190613331565b905073ffffffffffffffffffffffffffffffffffffffff851673eeeeeeeeeeeeeeeeeeeeeeeeeeeeeeeeeeeeeeee146119665761194573ffffffffffffffffffffffffffffffffffffffff8616876000612bd0565b61196673ffffffffffffffffffffffffffffffffffffffff86168786612bd0565b600073ffffffffffffffffffffffffffffffffffffffff861673eeeeeeeeeeeeeeeeeeeeeeeeeeeeeeeeeeeeeeee146119a05760006119a2565b845b6005546040517fda14526300000000000000000000000000000000000000000000000000000000815291925060009173ffffffffffffffffffffffffffffffffffffffff808b169263da145263928692611a0b928d9291169030908d908d908d9060040161340c565b60206040518083038185885af1158015611a29573d6000803e3d6000fd5b50505050506040513d601f19601f82011682018060405250810190611a4e91906132d2565b9050600080611a63838663ffffffff16611d5e565b91509150611ad7600360009054906101000a900473ffffffffffffffffffffffffffffffffffffffff1673ffffffffffffffffffffffffffffffffffffffff166361d027b36040518163ffffffff1660e01b8152600401602060405180830381865afa1580156107da573d6000803e3d6000fd5b60068054830190556005546040517f70a0823100000000000000000000000000000000000000000000000000000000815230600482015273ffffffffffffffffffffffffffffffffffffffff909116906370a0823190602401602060405180830381865afa158015611b4d573d6000803e3d6000fd5b505050506040513d601f19601f82011682018060405250810190611b7191906132d2565b6006541115611bac576040517fca3e0a6800000000000000000000000000000000000000000000000000000000815260040160405180910390fd5b604080518481526020810183905230917fac791e4e5e1041f59b3427f769f90a58cb39873d7fec687682c09583b425099c910160405180910390a2505060016002555050505050505050565b611c26336000357fffffffff0000000000000000000000000000000000000000000000000000000016611e7f565b611c5c576040517f82b4290000000000000000000000000000000000000000000000000000000000815260040160405180910390fd5b6109ab8383836121a6565b6003546040517fa96abefe00000000000000000000000000000000000000000000000000000000815230600482015260009173ffffffffffffffffffffffffffffffffffffffff169063a96abefe906024015b602060405180830381865afa158015611cd7573d6000803e3d6000fd5b505050506040513d601f19601f82011682018060405250810190611cfb9190613331565b90506111dd82826128e1565b6003546040517f759c45dc00000000000000000000000000000000000000000000000000000000815230600482015260009173ffffffffffffffffffffffffffffffffffffffff169063759c45dc90602401611cba565b600080612710831115611d9d576040517f4a7f394f00000000000000000000000000000000000000000000000000000000815260040160405180910390fd5b611da78484612c97565b938490039492505050565b60006040517fa9059cbb00000000000000000000000000000000000000000000000000000000815273ffffffffffffffffffffffffffffffffffffffff841660048201528260248201526000806044836000895af1915050611e1381612caf565b611e79576040517f08c379a000000000000000000000000000000000000000000000000000000000815260206004820152600f60248201527f5452414e534645525f4641494c454400000000000000000000000000000000006044820152606401610f15565b50505050565b6000805460015473ffffffffffffffffffffffffffffffffffffffff90911690829060601b7fffffffffffffffffffffffffffffffffffffffff0000000000000000000000001615611ee95760015473ffffffffffffffffffffffffffffffffffffffff16611eeb565b305b6040517fb700961300000000000000000000000000000000000000000000000000000000815273ffffffffffffffffffffffffffffffffffffffff878116600483015280831660248301527fffffffff00000000000000000000000000000000000000000000000000000000871660448301529192509083169063b700961390606401602060405180830381865afa158015611f8b573d6000803e3d6000fd5b505050506040513d601f19601f82011682018060405250810190611faf919061336b565b80610f1e57508173ffffffffffffffffffffffffffffffffffffffff16638da5cb5b6040518163ffffffff1660e01b8152600401602060405180830381865afa158015612000573d6000803e3d6000fd5b505050506040513d601f19601f82011682018060405250810190612024919061334e565b73ffffffffffffffffffffffffffffffffffffffff168573ffffffffffffffffffffffffffffffffffffffff161495945050505050565b816006541015612097576040517f356680b700000000000000000000000000000000000000000000000000000000815260040160405180910390fd5b6000806120aa848463ffffffff16611d5e565b9150915061211e600360009054906101000a900473ffffffffffffffffffffffffffffffffffffffff1673ffffffffffffffffffffffffffffffffffffffff166361d027b36040518163ffffffff1660e01b8152600401602060405180830381865afa1580156107da573d6000803e3d6000fd5b6005546121429073ffffffffffffffffffffffffffffffffffffffff168684611db2565b600680548590039055604080518581526020810183905273ffffffffffffffffffffffffffffffffffffffff87169130917f41ac2430a734173e8b6d39713e824f15d8ab1a9c4af6d07f5fb738822af7523391015b60405180910390a35050505050565b6003546040517fea3fff6800000000000000000000000000000000000000000000000000000000815230600482015273ffffffffffffffffffffffffffffffffffffffff9091169063ea3fff6890602401602060405180830381865afa158015612214573d6000803e3d6000fd5b505050506040513d601f19601f82011682018060405250810190612238919061336b565b15806122d557506003546040517fea3fff6800000000000000000000000000000000000000000000000000000000815273ffffffffffffffffffffffffffffffffffffffff85811660048301529091169063ea3fff6890602401602060405180830381865afa1580156122af573d6000803e3d6000fd5b505050506040513d601f19601f820116820180604052508101906122d3919061336b565b155b1561230c576040517f4839ee3e00000000000000000000000000000000000000000000000000000000815260040160405180910390fd5b816006541015612348576040517f356680b700000000000000000000000000000000000000000000000000000000815260040160405180910390fd5b60008061235b848463ffffffff16611d5e565b915091506123cf600360009054906101000a900473ffffffffffffffffffffffffffffffffffffffff1673ffffffffffffffffffffffffffffffffffffffff166361d027b36040518163ffffffff1660e01b8152600401602060405180830381865afa1580156107da573d6000803e3d6000fd5b6005546123f39073ffffffffffffffffffffffffffffffffffffffff168684611db2565b6006805485900390556040517f49d55d9d0000000000000000000000000000000000000000000000000000000081526004810183905273ffffffffffffffffffffffffffffffffffffffff8616906349d55d9d90602401600060405180830381600087803b15801561246457600080fd5b505af1158015612478573d6000803e3d6000fd5b5050604080518781526020810185905273ffffffffffffffffffffffffffffffffffffffff891693503092507f5bf84598f4648ea3b18834387f5f25bd778972e993ae703a68808743824a16189101612197565b600254600114612508576040517fab143c0600000000000000000000000000000000000000000000000000000000815260040160405180910390fd5b600280556003546040517f6ab3905700000000000000000000000000000000000000000000000000000000815273ffffffffffffffffffffffffffffffffffffffff888116600483015290911690636ab3905790602401602060405180830381865afa15801561257c573d6000803e3d6000fd5b505050506040513d601f19601f820116820180604052508101906125a0919061336b565b6125d6576040517f4a7f394f00000000000000000000000000000000000000000000000000000000815260040160405180910390fd5b73ffffffffffffffffffffffffffffffffffffffff851673eeeeeeeeeeeeeeeeeeeeeeeeeeeeeeeeeeeeeeee1461266c5761262973ffffffffffffffffffffffffffffffffffffffff8616333087612cf6565b61264b73ffffffffffffffffffffffffffffffffffffffff8616876000612bd0565b61266c73ffffffffffffffffffffffffffffffffffffffff86168786612bd0565b6005546040517fda14526300000000000000000000000000000000000000000000000000000000815260009173ffffffffffffffffffffffffffffffffffffffff808a169263da1452639234926126d3928c929091169030908c908c908c9060040161340c565b60206040518083038185885af11580156126f1573d6000803e3d6000fd5b50505050506040513d601f19601f8201168201806040525081019061271691906132d2565b905060008061272b838563ffffffff16611d5e565b9150915061279f600360009054906101000a900473ffffffffffffffffffffffffffffffffffffffff1673ffffffffffffffffffffffffffffffffffffffff166361d027b36040518163ffffffff1660e01b8152600401602060405180830381865afa1580156107da573d6000803e3d6000fd5b60068054830190556005546040517f70a0823100000000000000000000000000000000000000000000000000000000815230600482015273ffffffffffffffffffffffffffffffffffffffff909116906370a0823190602401602060405180830381865afa158015612815573d6000803e3d6000fd5b505050506040513d601f19601f8201168201806040525081019061283991906132d2565b6006541115612874576040517fca3e0a6800000000000000000000000000000000000000000000000000000000815260040160405180910390fd5b604080518881526020810185905290810182905273ffffffffffffffffffffffffffffffffffffffff891690309033907fc866822a337be53282ff0bf1ad9c9eb8312fa7b420f9327a2c33ec7e72d50b8f9060600160405180910390a45050600160025550505050505050565b6000806128f4848463ffffffff16611d5e565b915091506129ae33600360009054906101000a900473ffffffffffffffffffffffffffffffffffffffff1673ffffffffffffffffffffffffffffffffffffffff166361d027b36040518163ffffffff1660e01b8152600401602060405180830381865afa158015612969573d6000803e3d6000fd5b505050506040513d601f19601f8201168201806040525081019061298d919061334e565b60055473ffffffffffffffffffffffffffffffffffffffff16919084612cf6565b6005546129d39073ffffffffffffffffffffffffffffffffffffffff16333085612cf6565b6006805483019055600554604080518681526020810187905290810183905273ffffffffffffffffffffffffffffffffffffffff90911690309033907fc866822a337be53282ff0bf1ad9c9eb8312fa7b420f9327a2c33ec7e72d50b8f9060600160405180910390a450505050565b6040517f656e74697479000000000000000000000000000000000000000000000000000060208201527f01000000000000000000000000000000000000000000000000000000000000006026820152612ab7908390602701604051602081830303815290604052612ab290613460565b612de0565b612abf612ed3565b6003805473ffffffffffffffffffffffffffffffffffffffff8085167fffffffffffffffffffffffff000000000000000000000000000000000000000092831681179093556004805491851691909216178155604080517fc55dae63000000000000000000000000000000000000000000000000000000008152905163c55dae63928281019260209291908290030181865afa158015612b63573d6000803e3d6000fd5b505050506040513d601f19601f82011682018060405250810190612b87919061334e565b600580547fffffffffffffffffffffffff00000000000000000000000000000000000000001673ffffffffffffffffffffffffffffffffffffffff929092169190911790555050565b60006040517f095ea7b300000000000000000000000000000000000000000000000000000000815273ffffffffffffffffffffffffffffffffffffffff841660048201528260248201526000806044836000895af1915050612c3181612caf565b611e79576040517f08c379a000000000000000000000000000000000000000000000000000000000815260206004820152600e60248201527f415050524f56455f4641494c45440000000000000000000000000000000000006044820152606401610f15565b6000612ca382846134b0565b61271090049392505050565b60003d82612cc157806000803e806000fd5b8060208114612cd9578015612cea5760009250612cef565b816000803e60005115159250612cef565b600192505b5050919050565b60006040517f23b872dd00000000000000000000000000000000000000000000000000000000815273ffffffffffffffffffffffffffffffffffffffff8516600482015273ffffffffffffffffffffffffffffffffffffffff8416602482015282604482015260008060648360008a5af1915050612d7381612caf565b612dd9576040517f08c379a000000000000000000000000000000000000000000000000000000000815260206004820152601460248201527f5452414e534645525f46524f4d5f4641494c45440000000000000000000000006044820152606401610f15565b5050505050565b73ffffffffffffffffffffffffffffffffffffffff8216612e2d576040517fded4370e00000000000000000000000000000000000000000000000000000000815260040160405180910390fd5b60005473ffffffffffffffffffffffffffffffffffffffff1615612e7d576040517f0dc149f000000000000000000000000000000000000000000000000000000000815260040160405180910390fd5b6000805473ffffffffffffffffffffffffffffffffffffffff9093167fffffffffffffffffffffffff00000000000000000000000000000000000000009384161790556001805460609290921c91909216179055565b60025415612f0d576040517fab143c0600000000000000000000000000000000000000000000000000000000815260040160405180910390fd5b6001600255565b73ffffffffffffffffffffffffffffffffffffffff811681146108a357600080fd5b60008060408385031215612f4957600080fd5b8235612f5481612f14565b946020939093013593505050565b60008083601f840112612f7457600080fd5b50813567ffffffffffffffff811115612f8c57600080fd5b602083019150836020828501011115612fa457600080fd5b9250929050565b60008060008060608587031215612fc157600080fd5b8435612fcc81612f14565b935060208501359250604085013567ffffffffffffffff811115612fef57600080fd5b612ffb87828801612f62565b95989497509550505050565b63ffffffff811681146108a357600080fd5b60008060006060848603121561302e57600080fd5b833561303981612f14565b925060208401359150604084013561305081613007565b809150509250925092565b60006020828403121561306d57600080fd5b5035919050565b7f4e487b7100000000000000000000000000000000000000000000000000000000600052604160045260246000fd5b6000806000606084860312156130b857600080fd5b83356130c381612f14565b925060208401359150604084013567ffffffffffffffff808211156130e757600080fd5b818601915086601f8301126130fb57600080fd5b81358181111561310d5761310d613074565b604051601f82017fffffffffffffffffffffffffffffffffffffffffffffffffffffffffffffffe0908116603f0116810190838211818310171561315357613153613074565b8160405282815289602084870101111561316c57600080fd5b8260208601602083013760006020848301015280955050505050509250925092565b60005b838110156131a9578181015183820152602001613191565b83811115611e795750506000910152565b60208152600082518060208401526131d981604085016020870161318e565b601f017fffffffffffffffffffffffffffffffffffffffffffffffffffffffffffffffe0169190910160400192915050565b60008060008060006080868803121561322357600080fd5b853561322e81612f14565b9450602086013561323e81612f14565b935060408601359250606086013567ffffffffffffffff81111561326157600080fd5b61326d88828901612f62565b969995985093965092949392505050565b6000806040838503121561329157600080fd5b8235915060208301356132a381613007565b809150509250929050565b6000602082840312156132c057600080fd5b81356132cb81612f14565b9392505050565b6000602082840312156132e457600080fd5b5051919050565b7f4e487b7100000000000000000000000000000000000000000000000000000000600052601160045260246000fd5b60008282101561332c5761332c6132eb565b500390565b60006020828403121561334357600080fd5b81516132cb81613007565b60006020828403121561336057600080fd5b81516132cb81612f14565b60006020828403121561337d57600080fd5b815180151581146132cb57600080fd5b8183528181602085013750600060208284010152600060207fffffffffffffffffffffffffffffffffffffffffffffffffffffffffffffffe0601f840116840101905092915050565b838152604060208201526000610f1e60408301848661338d565b6000825161340281846020870161318e565b9190910192915050565b600073ffffffffffffffffffffffffffffffffffffffff8089168352808816602084015280871660408401525084606083015260a0608083015261345460a08301848661338d565b98975050505050505050565b6000815160208301517fffffffffffffffffffffffffffffffffffffffff000000000000000000000000808216935060148310156134a85780818460140360031b1b83161693505b505050919050565b6000817fffffffffffffffffffffffffffffffffffffffffffffffffffffffffffffffff04831182151516156134e8576134e86132eb565b50029056fea2646970667358221220edf11c16ce0f6b6284ad19956707900222963145e845d9a42bb320372af302d264736f6c634300080d0033608060405234801561001057600080fd5b50613495806100206000396000f3fe6080604052600436106101b05760003560e01c8063a2f48b9f116100ec578063c45e15a01161008a578063df3d067e11610064578063df3d067e1461053f578063e6f5f0331461055f578063f14faf6f1461057f578063f7044a5f1461059f57600080fd5b8063c45e15a0146104ca578063c55dae63146104f2578063d0ebdbe71461051f57600080fd5b8063b100169b116100c6578063b100169b14610447578063b69ef8a814610467578063bf7e214f1461047d578063c422c5bd146104aa57600080fd5b8063a2f48b9f14610401578063a8e405b014610414578063ab3c14fe1461043457600080fd5b8063481c6a75116101595780636a681541116101335780636a681541146103785780636c184885146103985780637b103999146103b8578063838453fd146103e557600080fd5b8063481c6a75146102e6578063485cc9551461033857806349d55d9d1461035857600080fd5b80632031ee951161018a5780632031ee951461024857806324c67842146102985780632c482f19146102c657600080fd5b80630b2ec672146101f15780630cb6ee6f14610208578063117de2fd1461022857600080fd5b366101ec5760405134815233907f319b17788d08284faf176ecc26488a92299d712ea00ef44b9bcc454f8c8e66b29060200160405180910390a2005b600080fd5b3480156101fd57600080fd5b506102066105bf565b005b34801561021457600080fd5b50610206610223366004612e7a565b61085a565b34801561023457600080fd5b50610206610243366004612e7a565b610964565b34801561025457600080fd5b506001546102629060601b81565b6040517fffffffffffffffffffffffffffffffffffffffff00000000000000000000000090911681526020015b60405180910390f35b3480156102a457600080fd5b506102b86102b3366004612eef565b610a1f565b60405190815260200161028f565b3480156102d257600080fd5b506102066102e1366004612f5d565b610c78565b3480156102f257600080fd5b506004546103139073ffffffffffffffffffffffffffffffffffffffff1681565b60405173ffffffffffffffffffffffffffffffffffffffff909116815260200161028f565b34801561034457600080fd5b50610206610353366004612f9f565b610ce7565b34801561036457600080fd5b50610206610373366004612fd8565b610cf5565b61038b610386366004613020565b610dc8565b60405161028f9190613137565b3480156103a457600080fd5b506102066103b3366004612e7a565b610ee9565b3480156103c457600080fd5b506003546103139073ffffffffffffffffffffffffffffffffffffffff1681565b3480156103f157600080fd5b506040516002815260200161028f565b61020661040f366004613188565b61101c565b34801561042057600080fd5b5061020661042f3660046131fb565b6110c8565b610206610442366004613188565b611136565b34801561045357600080fd5b50610206610462366004612e7a565b61118d565b34801561047357600080fd5b506102b860065481565b34801561048957600080fd5b506000546103139073ffffffffffffffffffffffffffffffffffffffff1681565b3480156104b657600080fd5b506102b86104c5366004612eef565b611276565b3480156104d657600080fd5b5061031373eeeeeeeeeeeeeeeeeeeeeeeeeeeeeeeeeeeeeeee81565b3480156104fe57600080fd5b506005546103139073ffffffffffffffffffffffffffffffffffffffff1681565b34801561052b57600080fd5b5061020661053a366004613220565b6114f5565b34801561054b57600080fd5b5061020661055a366004613188565b61160d565b34801561056b57600080fd5b5061020661057a366004612f5d565b611b3c565b34801561058b57600080fd5b5061020661059a366004612fd8565b611bab565b3480156105ab57600080fd5b506102066105ba366004612fd8565b611c4b565b6005546040517f70a0823100000000000000000000000000000000000000000000000000000000815230600482015260009173ffffffffffffffffffffffffffffffffffffffff16906370a0823190602401602060405180830381865afa15801561062e573d6000803e3d6000fd5b505050506040513d601f19601f820116820180604052508101906106529190613244565b9050600654811061081c5760006006548261066d919061328c565b6003546040517f759c45dc00000000000000000000000000000000000000000000000000000000815230600482015291925060009173ffffffffffffffffffffffffffffffffffffffff9091169063759c45dc90602401602060405180830381865afa1580156106e1573d6000803e3d6000fd5b505050506040513d601f19601f8201168201806040525081019061070591906132a3565b905060008061071a848463ffffffff16611ca2565b915091506107d2600360009054906101000a900473ffffffffffffffffffffffffffffffffffffffff1673ffffffffffffffffffffffffffffffffffffffff166361d027b36040518163ffffffff1660e01b8152600401602060405180830381865afa15801561078e573d6000803e3d6000fd5b505050506040513d601f19601f820116820180604052508101906107b291906132c0565b60055473ffffffffffffffffffffffffffffffffffffffff169083611cf6565b6006805483019055604080518581526020810183905230917fac791e4e5e1041f59b3427f769f90a58cb39873d7fec687682c09583b425099c910160405180910390a25050505050565b600681905560405181815230907f1cd384df7b960f3950da0f15d6aa8d62512c9f2209adde5ddeba0f4ebd6b58829060200160405180910390a25b50565b610888336000357fffffffff0000000000000000000000000000000000000000000000000000000016611dc3565b6108be576040517f82b4290000000000000000000000000000000000000000000000000000000000815260040160405180910390fd5b6003546040517fb3d5804500000000000000000000000000000000000000000000000000000000815230600482015260009173ffffffffffffffffffffffffffffffffffffffff169063b3d58045906024015b602060405180830381865afa15801561092e573d6000803e3d6000fd5b505050506040513d601f19601f8201168201806040525081019061095291906132a3565b905061095f838383611f9f565b505050565b610992336000357fffffffff0000000000000000000000000000000000000000000000000000000016611dc3565b6109c8576040517f82b4290000000000000000000000000000000000000000000000000000000000815260040160405180910390fd5b6003546040517fb4ea2a9800000000000000000000000000000000000000000000000000000000815230600482015260009173ffffffffffffffffffffffffffffffffffffffff169063b4ea2a9890602401610911565b60045460009073ffffffffffffffffffffffffffffffffffffffff163314801590610a755750610a73336000357fffffffff0000000000000000000000000000000000000000000000000000000016611dc3565b155b15610aac576040517f82b4290000000000000000000000000000000000000000000000000000000000815260040160405180910390fd5b6003546040517f55c6f68300000000000000000000000000000000000000000000000000000000815273ffffffffffffffffffffffffffffffffffffffff8781166004830152909116906355c6f68390602401602060405180830381865afa158015610b1c573d6000803e3d6000fd5b505050506040513d601f19601f82011682018060405250810190610b4091906132dd565b610b76576040517fbc43451a00000000000000000000000000000000000000000000000000000000815260040160405180910390fd5b6040517fe77c646d00000000000000000000000000000000000000000000000000000000815260009073ffffffffffffffffffffffffffffffffffffffff87169063e77c646d90610bcf90889088908890600401613348565b6020604051808303816000875af1158015610bee573d6000803e3d6000fd5b505050506040513d601f19601f82011682018060405250810190610c129190613244565b6006805482019055604080518781526020810183905291925073ffffffffffffffffffffffffffffffffffffffff8816917fee0fb9e6d573076d9a07b1d91e0a988c2f988d1d690ff129ff3096408d0afbc891015b60405180910390a295945050505050565b610ca6336000357fffffffff0000000000000000000000000000000000000000000000000000000016611dc3565b610cdc576040517f82b4290000000000000000000000000000000000000000000000000000000000815260040160405180910390fd5b61095f838383611f9f565b610cf182826120ea565b5050565b6003546040517fea3fff6800000000000000000000000000000000000000000000000000000000815233600482015273ffffffffffffffffffffffffffffffffffffffff9091169063ea3fff6890602401602060405180830381865afa158015610d63573d6000803e3d6000fd5b505050506040513d601f19601f82011682018060405250810190610d8791906132dd565b610dbd576040517f4839ee3e00000000000000000000000000000000000000000000000000000000815260040160405180910390fd5b600680549091019055565b6060610df8336000357fffffffff0000000000000000000000000000000000000000000000000000000016611dc3565b610e2e576040517f82b4290000000000000000000000000000000000000000000000000000000000815260040160405180910390fd5b6000808573ffffffffffffffffffffffffffffffffffffffff168585604051610e579190613362565b60006040518083038185875af1925050503d8060008114610e94576040519150601f19603f3d011682016040523d82523d6000602084013e610e99565b606091505b509150915081610ee057806040517fa5fa8d2b000000000000000000000000000000000000000000000000000000008152600401610ed79190613137565b60405180910390fd5b95945050505050565b60045473ffffffffffffffffffffffffffffffffffffffff163314801590610f3c5750610f3a336000357fffffffff0000000000000000000000000000000000000000000000000000000016611dc3565b155b15610f73576040517f82b4290000000000000000000000000000000000000000000000000000000000815260040160405180910390fd5b6003546040517f864ec3f000000000000000000000000000000000000000000000000000000000815230600482015273ffffffffffffffffffffffffffffffffffffffff8481166024830152600092169063864ec3f0906044015b602060405180830381865afa158015610feb573d6000803e3d6000fd5b505050506040513d601f19601f8201168201806040525081019061100f91906132a3565b905061095f838383612278565b6003546040517fa96abefe00000000000000000000000000000000000000000000000000000000815230600482015260009173ffffffffffffffffffffffffffffffffffffffff169063a96abefe906024015b602060405180830381865afa15801561108c573d6000803e3d6000fd5b505050506040513d601f19601f820116820180604052508101906110b091906132a3565b90506110c086868686868661259e565b505050505050565b6110f6336000357fffffffff0000000000000000000000000000000000000000000000000000000016611dc3565b61112c576040517f82b4290000000000000000000000000000000000000000000000000000000000815260040160405180910390fd5b610cf182826129b3565b6003546040517f759c45dc00000000000000000000000000000000000000000000000000000000815230600482015260009173ffffffffffffffffffffffffffffffffffffffff169063759c45dc9060240161106f565b60045473ffffffffffffffffffffffffffffffffffffffff1633148015906111e057506111de336000357fffffffff0000000000000000000000000000000000000000000000000000000016611dc3565b155b15611217576040517f82b4290000000000000000000000000000000000000000000000000000000000815260040160405180910390fd5b6003546040517fda93546e00000000000000000000000000000000000000000000000000000000815230600482015273ffffffffffffffffffffffffffffffffffffffff8481166024830152600092169063da93546e90604401610fce565b60045460009073ffffffffffffffffffffffffffffffffffffffff1633148015906112cc57506112ca336000357fffffffff0000000000000000000000000000000000000000000000000000000016611dc3565b155b15611303576040517f82b4290000000000000000000000000000000000000000000000000000000000815260040160405180910390fd5b6003546040517f55c6f68300000000000000000000000000000000000000000000000000000000815273ffffffffffffffffffffffffffffffffffffffff8781166004830152909116906355c6f68390602401602060405180830381865afa158015611373573d6000803e3d6000fd5b505050506040513d601f19601f8201168201806040525081019061139791906132dd565b6113cd576040517fbc43451a00000000000000000000000000000000000000000000000000000000815260040160405180910390fd5b83600660008282546113df919061328c565b90915550506005546114089073ffffffffffffffffffffffffffffffffffffffff168686612b14565b6040517f5d30351900000000000000000000000000000000000000000000000000000000815260009073ffffffffffffffffffffffffffffffffffffffff871690635d3035199061146190889088908890600401613348565b6020604051808303816000875af1158015611480573d6000803e3d6000fd5b505050506040513d601f19601f820116820180604052508101906114a49190613244565b604080518781526020810183905291925073ffffffffffffffffffffffffffffffffffffffff8816917f17f635bacbd012dd587e39c86059a06f779ee2111f6c5541b40c2941b09cf7c49101610c67565b60045473ffffffffffffffffffffffffffffffffffffffff1633148015906115485750611546336000357fffffffff0000000000000000000000000000000000000000000000000000000016611dc3565b155b1561157f576040517f82b4290000000000000000000000000000000000000000000000000000000000815260040160405180910390fd5b60045460405173ffffffffffffffffffffffffffffffffffffffff8084169216907f20b26c6c7ff7d40d049fc212237046ba5f7cde4ba6d317501329880970cbb01590600090a3600480547fffffffffffffffffffffffff00000000000000000000000000000000000000001673ffffffffffffffffffffffffffffffffffffffff92909216919091179055565b600254600114611649576040517fab143c0600000000000000000000000000000000000000000000000000000000815260040160405180910390fd5b6002805560045473ffffffffffffffffffffffffffffffffffffffff1633148015906116a0575061169e336000357fffffffff0000000000000000000000000000000000000000000000000000000016611dc3565b155b156116d7576040517f82b4290000000000000000000000000000000000000000000000000000000000815260040160405180910390fd5b6003546040517f6ab3905700000000000000000000000000000000000000000000000000000000815273ffffffffffffffffffffffffffffffffffffffff878116600483015290911690636ab3905790602401602060405180830381865afa158015611747573d6000803e3d6000fd5b505050506040513d601f19601f8201168201806040525081019061176b91906132dd565b6117a1576040517f4a7f394f00000000000000000000000000000000000000000000000000000000815260040160405180910390fd5b6003546040517f759c45dc00000000000000000000000000000000000000000000000000000000815230600482015260009173ffffffffffffffffffffffffffffffffffffffff169063759c45dc90602401602060405180830381865afa158015611810573d6000803e3d6000fd5b505050506040513d601f19601f8201168201806040525081019061183491906132a3565b905073ffffffffffffffffffffffffffffffffffffffff851673eeeeeeeeeeeeeeeeeeeeeeeeeeeeeeeeeeeeeeee146118aa5761188973ffffffffffffffffffffffffffffffffffffffff8616876000612b14565b6118aa73ffffffffffffffffffffffffffffffffffffffff86168786612b14565b600073ffffffffffffffffffffffffffffffffffffffff861673eeeeeeeeeeeeeeeeeeeeeeeeeeeeeeeeeeeeeeee146118e45760006118e6565b845b6005546040517fda14526300000000000000000000000000000000000000000000000000000000815291925060009173ffffffffffffffffffffffffffffffffffffffff808b169263da14526392869261194f928d9291169030908d908d908d9060040161337e565b60206040518083038185885af115801561196d573d6000803e3d6000fd5b50505050506040513d601f19601f820116820180604052508101906119929190613244565b90506000806119a7838663ffffffff16611ca2565b91509150611a1b600360009054906101000a900473ffffffffffffffffffffffffffffffffffffffff1673ffffffffffffffffffffffffffffffffffffffff166361d027b36040518163ffffffff1660e01b8152600401602060405180830381865afa15801561078e573d6000803e3d6000fd5b60068054830190556005546040517f70a0823100000000000000000000000000000000000000000000000000000000815230600482015273ffffffffffffffffffffffffffffffffffffffff909116906370a0823190602401602060405180830381865afa158015611a91573d6000803e3d6000fd5b505050506040513d601f19601f82011682018060405250810190611ab59190613244565b6006541115611af0576040517fca3e0a6800000000000000000000000000000000000000000000000000000000815260040160405180910390fd5b604080518481526020810183905230917fac791e4e5e1041f59b3427f769f90a58cb39873d7fec687682c09583b425099c910160405180910390a2505060016002555050505050505050565b611b6a336000357fffffffff0000000000000000000000000000000000000000000000000000000016611dc3565b611ba0576040517f82b4290000000000000000000000000000000000000000000000000000000000815260040160405180910390fd5b61095f838383612278565b6003546040517fa96abefe00000000000000000000000000000000000000000000000000000000815230600482015260009173ffffffffffffffffffffffffffffffffffffffff169063a96abefe906024015b602060405180830381865afa158015611c1b573d6000803e3d6000fd5b505050506040513d601f19601f82011682018060405250810190611c3f91906132a3565b9050610cf182826129b3565b6003546040517f759c45dc00000000000000000000000000000000000000000000000000000000815230600482015260009173ffffffffffffffffffffffffffffffffffffffff169063759c45dc90602401611bfe565b600080612710831115611ce1576040517f4a7f394f00000000000000000000000000000000000000000000000000000000815260040160405180910390fd5b611ceb8484612bdb565b938490039492505050565b60006040517fa9059cbb00000000000000000000000000000000000000000000000000000000815273ffffffffffffffffffffffffffffffffffffffff841660048201528260248201526000806044836000895af1915050611d5781612bf3565b611dbd576040517f08c379a000000000000000000000000000000000000000000000000000000000815260206004820152600f60248201527f5452414e534645525f4641494c454400000000000000000000000000000000006044820152606401610ed7565b50505050565b6000805460015473ffffffffffffffffffffffffffffffffffffffff90911690829060601b7fffffffffffffffffffffffffffffffffffffffff0000000000000000000000001615611e2d5760015473ffffffffffffffffffffffffffffffffffffffff16611e2f565b305b6040517fb700961300000000000000000000000000000000000000000000000000000000815273ffffffffffffffffffffffffffffffffffffffff878116600483015280831660248301527fffffffff00000000000000000000000000000000000000000000000000000000871660448301529192509083169063b700961390606401602060405180830381865afa158015611ecf573d6000803e3d6000fd5b505050506040513d601f19601f82011682018060405250810190611ef391906132dd565b80610ee057508173ffffffffffffffffffffffffffffffffffffffff16638da5cb5b6040518163ffffffff1660e01b8152600401602060405180830381865afa158015611f44573d6000803e3d6000fd5b505050506040513d601f19601f82011682018060405250810190611f6891906132c0565b73ffffffffffffffffffffffffffffffffffffffff168573ffffffffffffffffffffffffffffffffffffffff161495945050505050565b816006541015611fdb576040517f356680b700000000000000000000000000000000000000000000000000000000815260040160405180910390fd5b600080611fee848463ffffffff16611ca2565b91509150612062600360009054906101000a900473ffffffffffffffffffffffffffffffffffffffff1673ffffffffffffffffffffffffffffffffffffffff166361d027b36040518163ffffffff1660e01b8152600401602060405180830381865afa15801561078e573d6000803e3d6000fd5b6005546120869073ffffffffffffffffffffffffffffffffffffffff168684611cf6565b600680548590039055604080518581526020810183905273ffffffffffffffffffffffffffffffffffffffff87169130917f41ac2430a734173e8b6d39713e824f15d8ab1a9c4af6d07f5fb738822af7523391015b60405180910390a35050505050565b6040517f656e74697479000000000000000000000000000000000000000000000000000060208201527f0200000000000000000000000000000000000000000000000000000000000000602682015261215f90839060270160405160208183030381529060405261215a906133d2565b612c3a565b612167612d2d565b6003805473ffffffffffffffffffffffffffffffffffffffff8085167fffffffffffffffffffffffff000000000000000000000000000000000000000092831681179093556004805491851691909216178155604080517fc55dae63000000000000000000000000000000000000000000000000000000008152905163c55dae63928281019260209291908290030181865afa15801561220b573d6000803e3d6000fd5b505050506040513d601f19601f8201168201806040525081019061222f91906132c0565b600580547fffffffffffffffffffffffff00000000000000000000000000000000000000001673ffffffffffffffffffffffffffffffffffffffff929092169190911790555050565b6003546040517fea3fff6800000000000000000000000000000000000000000000000000000000815230600482015273ffffffffffffffffffffffffffffffffffffffff9091169063ea3fff6890602401602060405180830381865afa1580156122e6573d6000803e3d6000fd5b505050506040513d601f19601f8201168201806040525081019061230a91906132dd565b15806123a757506003546040517fea3fff6800000000000000000000000000000000000000000000000000000000815273ffffffffffffffffffffffffffffffffffffffff85811660048301529091169063ea3fff6890602401602060405180830381865afa158015612381573d6000803e3d6000fd5b505050506040513d601f19601f820116820180604052508101906123a591906132dd565b155b156123de576040517f4839ee3e00000000000000000000000000000000000000000000000000000000815260040160405180910390fd5b81600654101561241a576040517f356680b700000000000000000000000000000000000000000000000000000000815260040160405180910390fd5b60008061242d848463ffffffff16611ca2565b915091506124a1600360009054906101000a900473ffffffffffffffffffffffffffffffffffffffff1673ffffffffffffffffffffffffffffffffffffffff166361d027b36040518163ffffffff1660e01b8152600401602060405180830381865afa15801561078e573d6000803e3d6000fd5b6005546124c59073ffffffffffffffffffffffffffffffffffffffff168684611cf6565b6006805485900390556040517f49d55d9d0000000000000000000000000000000000000000000000000000000081526004810183905273ffffffffffffffffffffffffffffffffffffffff8616906349d55d9d90602401600060405180830381600087803b15801561253657600080fd5b505af115801561254a573d6000803e3d6000fd5b5050604080518781526020810185905273ffffffffffffffffffffffffffffffffffffffff891693503092507f5bf84598f4648ea3b18834387f5f25bd778972e993ae703a68808743824a161891016120db565b6002546001146125da576040517fab143c0600000000000000000000000000000000000000000000000000000000815260040160405180910390fd5b600280556003546040517f6ab3905700000000000000000000000000000000000000000000000000000000815273ffffffffffffffffffffffffffffffffffffffff888116600483015290911690636ab3905790602401602060405180830381865afa15801561264e573d6000803e3d6000fd5b505050506040513d601f19601f8201168201806040525081019061267291906132dd565b6126a8576040517f4a7f394f00000000000000000000000000000000000000000000000000000000815260040160405180910390fd5b73ffffffffffffffffffffffffffffffffffffffff851673eeeeeeeeeeeeeeeeeeeeeeeeeeeeeeeeeeeeeeee1461273e576126fb73ffffffffffffffffffffffffffffffffffffffff8616333087612d6e565b61271d73ffffffffffffffffffffffffffffffffffffffff8616876000612b14565b61273e73ffffffffffffffffffffffffffffffffffffffff86168786612b14565b6005546040517fda14526300000000000000000000000000000000000000000000000000000000815260009173ffffffffffffffffffffffffffffffffffffffff808a169263da1452639234926127a5928c929091169030908c908c908c9060040161337e565b60206040518083038185885af11580156127c3573d6000803e3d6000fd5b50505050506040513d601f19601f820116820180604052508101906127e89190613244565b90506000806127fd838563ffffffff16611ca2565b91509150612871600360009054906101000a900473ffffffffffffffffffffffffffffffffffffffff1673ffffffffffffffffffffffffffffffffffffffff166361d027b36040518163ffffffff1660e01b8152600401602060405180830381865afa15801561078e573d6000803e3d6000fd5b60068054830190556005546040517f70a0823100000000000000000000000000000000000000000000000000000000815230600482015273ffffffffffffffffffffffffffffffffffffffff909116906370a0823190602401602060405180830381865afa1580156128e7573d6000803e3d6000fd5b505050506040513d601f19601f8201168201806040525081019061290b9190613244565b6006541115612946576040517fca3e0a6800000000000000000000000000000000000000000000000000000000815260040160405180910390fd5b604080518881526020810185905290810182905273ffffffffffffffffffffffffffffffffffffffff891690309033907fc866822a337be53282ff0bf1ad9c9eb8312fa7b420f9327a2c33ec7e72d50b8f9060600160405180910390a45050600160025550505050505050565b6000806129c6848463ffffffff16611ca2565b91509150612a8033600360009054906101000a900473ffffffffffffffffffffffffffffffffffffffff1673ffffffffffffffffffffffffffffffffffffffff166361d027b36040518163ffffffff1660e01b8152600401602060405180830381865afa158015612a3b573d6000803e3d6000fd5b505050506040513d601f19601f82011682018060405250810190612a5f91906132c0565b60055473ffffffffffffffffffffffffffffffffffffffff16919084612d6e565b600554612aa59073ffffffffffffffffffffffffffffffffffffffff16333085612d6e565b6006805483019055600554604080518681526020810187905290810183905273ffffffffffffffffffffffffffffffffffffffff90911690309033907fc866822a337be53282ff0bf1ad9c9eb8312fa7b420f9327a2c33ec7e72d50b8f9060600160405180910390a450505050565b60006040517f095ea7b300000000000000000000000000000000000000000000000000000000815273ffffffffffffffffffffffffffffffffffffffff841660048201528260248201526000806044836000895af1915050612b7581612bf3565b611dbd576040517f08c379a000000000000000000000000000000000000000000000000000000000815260206004820152600e60248201527f415050524f56455f4641494c45440000000000000000000000000000000000006044820152606401610ed7565b6000612be78284613422565b61271090049392505050565b60003d82612c0557806000803e806000fd5b8060208114612c1d578015612c2e5760009250612c33565b816000803e60005115159250612c33565b600192505b5050919050565b73ffffffffffffffffffffffffffffffffffffffff8216612c87576040517fded4370e00000000000000000000000000000000000000000000000000000000815260040160405180910390fd5b60005473ffffffffffffffffffffffffffffffffffffffff1615612cd7576040517f0dc149f000000000000000000000000000000000000000000000000000000000815260040160405180910390fd5b6000805473ffffffffffffffffffffffffffffffffffffffff9093167fffffffffffffffffffffffff00000000000000000000000000000000000000009384161790556001805460609290921c91909216179055565b60025415612d67576040517fab143c0600000000000000000000000000000000000000000000000000000000815260040160405180910390fd5b6001600255565b60006040517f23b872dd00000000000000000000000000000000000000000000000000000000815273ffffffffffffffffffffffffffffffffffffffff8516600482015273ffffffffffffffffffffffffffffffffffffffff8416602482015282604482015260008060648360008a5af1915050612deb81612bf3565b612e51576040517f08c379a000000000000000000000000000000000000000000000000000000000815260206004820152601460248201527f5452414e534645525f46524f4d5f4641494c45440000000000000000000000006044820152606401610ed7565b5050505050565b73ffffffffffffffffffffffffffffffffffffffff8116811461085757600080fd5b60008060408385031215612e8d57600080fd5b8235612e9881612e58565b946020939093013593505050565b60008083601f840112612eb857600080fd5b50813567ffffffffffffffff811115612ed057600080fd5b602083019150836020828501011115612ee857600080fd5b9250929050565b60008060008060608587031215612f0557600080fd5b8435612f1081612e58565b935060208501359250604085013567ffffffffffffffff811115612f3357600080fd5b612f3f87828801612ea6565b95989497509550505050565b63ffffffff8116811461085757600080fd5b600080600060608486031215612f7257600080fd5b8335612f7d81612e58565b9250602084013591506040840135612f9481612f4b565b809150509250925092565b60008060408385031215612fb257600080fd5b8235612fbd81612e58565b91506020830135612fcd81612e58565b809150509250929050565b600060208284031215612fea57600080fd5b5035919050565b7f4e487b7100000000000000000000000000000000000000000000000000000000600052604160045260246000fd5b60008060006060848603121561303557600080fd5b833561304081612e58565b925060208401359150604084013567ffffffffffffffff8082111561306457600080fd5b818601915086601f83011261307857600080fd5b81358181111561308a5761308a612ff1565b604051601f82017fffffffffffffffffffffffffffffffffffffffffffffffffffffffffffffffe0908116603f011681019083821181831017156130d0576130d0612ff1565b816040528281528960208487010111156130e957600080fd5b8260208601602083013760006020848301015280955050505050509250925092565b60005b8381101561312657818101518382015260200161310e565b83811115611dbd5750506000910152565b602081526000825180602084015261315681604085016020870161310b565b601f017fffffffffffffffffffffffffffffffffffffffffffffffffffffffffffffffe0169190910160400192915050565b6000806000806000608086880312156131a057600080fd5b85356131ab81612e58565b945060208601356131bb81612e58565b935060408601359250606086013567ffffffffffffffff8111156131de57600080fd5b6131ea88828901612ea6565b969995985093965092949392505050565b6000806040838503121561320e57600080fd5b823591506020830135612fcd81612f4b565b60006020828403121561323257600080fd5b813561323d81612e58565b9392505050565b60006020828403121561325657600080fd5b5051919050565b7f4e487b7100000000000000000000000000000000000000000000000000000000600052601160045260246000fd5b60008282101561329e5761329e61325d565b500390565b6000602082840312156132b557600080fd5b815161323d81612f4b565b6000602082840312156132d257600080fd5b815161323d81612e58565b6000602082840312156132ef57600080fd5b8151801515811461323d57600080fd5b8183528181602085013750600060208284010152600060207fffffffffffffffffffffffffffffffffffffffffffffffffffffffffffffffe0601f840116840101905092915050565b838152604060208201526000610ee06040830184866132ff565b6000825161337481846020870161310b565b9190910192915050565b600073ffffffffffffffffffffffffffffffffffffffff8089168352808816602084015280871660408401525084606083015260a060808301526133c660a0830184866132ff565b98975050505050505050565b6000815160208301517fffffffffffffffffffffffffffffffffffffffff0000000000000000000000008082169350601483101561341a5780818460140360031b1b83161693505b505050919050565b6000817fffffffffffffffffffffffffffffffffffffffffffffffffffffffffffffffff048311821515161561345a5761345a61325d565b50029056fea2646970667358221220ea28ececa5e06129521af6f8179ff913b862f62b9004d7cb5fda484087fe4a0264736f6c634300080d0033",
    "linkReferences": {}
  },
  "methodIdentifiers": {
    "ETH_PLACEHOLDER()": "c45e15a0",
    "baseToken()": "c55dae63",
    "computeFundAddress(address,bytes32)": "099a81e3",
    "computeOrgAddress(bytes32)": "9fb8578d",
    "deployFund(address,bytes32)": "2a4004b8",
    "deployFundAndDonate(address,bytes32,uint256)": "e6be99fc",
    "deployFundSwapAndDonate(address,bytes32,address,address,uint256,bytes)": "ab438d6b",
    "deployOrg(bytes32)": "a60fe71d",
    "deployOrgAndDonate(bytes32,uint256)": "db9e30cc",
    "deployOrgSwapAndDonate(bytes32,address,address,uint256,bytes)": "bf37a670",
    "fundImplementation()": "0b307674",
    "orgImplementation()": "6fee7ed6",
    "registry()": "7b103999"
  },
  "id": 66
}